:020000040000FA
:0600000088EF0FF0120072
:020006001200E6
:0800080007EF00F01200DACF4F
:10001000E4FFE2CFDAFFE9CFE4FFEACFE4FFF6CF77
:10002000E4FFF7CFE4FFF5CFE4FFF3CFE4FFF4CF35
:10003000E4FFFACFE4FF00EE00F0140EE80403E35F
:10004000EECFE4FFFBD700EE14F0100EE80403E35C
:10005000EECFE4FFFBD7E6529EA00AD09E90C00EE2
:10006000E66EE00EE66E45EC0FF0E552E552A7D8DD
:10007000E55200EE23F0100EE80403E3E5CFEDFFB8
:10008000FBD700EE13F0140EE80403E3E5CFEDFF19
:10009000FBD7E5CFFAFFE5CFF4FFE5CFF3FFE5CFE0
:1000A000F5FFE5CFF7FFE5CFF6FFE5CFEAFFE5CFB8
:1000B000E9FFE5CFDAFF1100D9CFE6FFE1CFD9FFA5
:1000C0000B0EE126DE6ADE6ADE6ADD6ADD52DD5293
:1000D000080EDB6A090EDB6A3F0E8B6E946A55D8F8
:1000E0001AD8F28EF28C600EE66E000EE66E210ECD
:1000F000E66EC6EC05F0E552E552E5524BD8FFD767
:100100000B0EE15C03E200D0E16AE552E16EE552DC
:10011000E7CFD9FF1200D9CFE6FFE1CFD9FF060E16
:10012000E126DF6A010EDB6A020EDB6A030EDB6A80
:10013000040EDB6A050EDB6AA4EC0FF0DE52CC0E77
:10014000DD6EF80EF36E020EF3CFDBFF050EF36EDD
:10015000040EF3CFDBFFDBCFE6FF020EDBCFE6FFC3
:10016000010EDBCFE6FFEDEC0EF0E552E552E55275
:100170009E9CF28C9D8C060EE15C02E2E16AE552E7
:10018000E16EE552E7CFD9FF1200D388D38AD38C32
:100190009B9C1200000EE66EE66A45EC0FF0E552FD
:1001A000E552C40EE66E24EC0FF0E552C00EE66E8A
:1001B000E00EE66E45EC0FF0E552E5521200D9CFA5
:1001C000E6FFE1CFD9FF020EE126DE6ADD6A00011B
:1001D0006E2B000E6F23702B7123722B7323782BE1
:1001E0007923F00E6E1901E16F510FE1A8DBF3CF17
:1001F00014F0F4CF15F014C0E6FF15C0E6FFA4DA42
:10020000E552E55200016E6B6F6B3C0E781901E10F
:10021000795101E07BD0080EE66E61EC0FF0E552FB
:10022000A7EC0FF09FEC0FF0000901E0FBD796EC74
:100230000FF0F3CF14F0F4CF15F014C006F015C092
:1002400007F021EC0CF08BEC0DF006C0DEFF07C0D0
:10025000DDFFDECF14F0DDCF15F0640E145C000E70
:10026000155812E200017A517B110DE07651771199
:1002700003E0766B776B03D0010E766F776B786B4C
:10028000796B7A6B7B6B04D0010E00017A6F7B6B0C
:10029000E66A61EC0FF0E552A7EC0FF09FEC0FF06F
:1002A000000901E0FBD796EC0FF0F3CF14F0F4CF88
:1002B00015F014C006F015C007F021EC0CF08BEC23
:1002C0000DF006C0DEFF07C0DDFFDECF14F0DDCF8E
:1002D00015F0640E145C000E155812E200017C51FA
:1002E0007D110DE07451751103E0746B756B03D0D3
:1002F000010E746F756B786B796B7C6B7D6B04D0C2
:10030000010E00017C6F7D6B786B796B3C0E701970
:1003100001E1715107E176C0E6FF76DAE5520001AE
:10032000706B716B0C0E721901E1735107E174C0AF
:10033000E6FFB9DAE5520001726B736BBDDB020EAA
:10034000E15C02E2E16AE552E16EE552E7CFD9FFF6
:100350001200D9CFE6FFE1CFD9FF110EE126010E41
:10036000DB6A020EDB6A030EDB6A040EDB6A050E33
:10037000DB6A060EDB6A070EDB6A080EDB6A090E13
:10038000DB6A0A0EDB6A0B0EDB6A0C0EDB6A0D0EF3
:10039000DB6A0E0EDB6A0F0EDB6A100EDB6AFE0EE6
:1003A000DB50030A19E0010A11E0030A09E0010A1F
:1003B00001E017D0180EE66E61EC0FF0E55211D097
:1003C000100EE66E61EC0FF0E5520BD0080EE66EF3
:1003D00061EC0FF0E55205D0E66A61EC0FF0E552F2
:1003E00000D0DF6A320EDF5C3CE2A7EC0FF09FEC3E
:1003F0000FF0000901E0FBD796EC0FF0F3CF18F0F7
:10040000F4CF19F018C006F019C007F021EC0CF079
:1004100005C014F006C015F007C016F008C017F0AC
:10042000D950010FE96EDACFEAFFEECF05F0EECF3B
:1004300006F0EECF07F0EFCF08F014C00AF015C0B9
:100440000BF016C00CF017C00DF035EC0CF008C026
:10045000EDFF07C0EDFF06C0EDFF05C0EFFFDF2A8F
:10046000C1D7146A156A480E166E420E176ED9501F
:10047000010FE96EDACFEAFFEECF05F0EECF06F01E
:10048000EECF07F0EFCF08F014C00AF015C00BF064
:1004900016C00CF017C00DF0CBEC0CF008C0EDFF4F
:1004A00007C0EDFF06C0EDFF05C0EFFFFE0EDB50FD
:1004B000030A19E0010A11E0030A09E0010A01E058
:1004C00018D0500EE66E61EC0FF0E55212D0400EDF
:1004D000E66E61EC0FF0E5520CD0480EE66E61EC72
:1004E0000FF0E55206D0200EE66E61EC0FF0E552FB
:1004F00000D0DF6A320EDF5C3CE2A7EC0FF09FEC2D
:100500000FF0000901E0FBD796EC0FF0F3CF18F0E5
:10051000F4CF19F018C006F019C007F021EC0CF068
:1005200005C014F006C015F007C016F008C017F09B
:10053000D950050FE96EDACFEAFFEECF05F0EECF26
:1005400006F0EECF07F0EFCF08F014C00AF015C0A8
:100550000BF016C00CF017C00DF035EC0CF008C015
:10056000EDFF07C0EDFF06C0EDFF05C0EFFFDF2A7E
:10057000C1D7146A156A480E166E420E176ED9500E
:10058000050FE96EDACFEAFFEECF05F0EECF06F009
:10059000EECF07F0EFCF08F014C00AF015C00BF053
:1005A00016C00CF017C00DF0CBEC0CF008C0EDFF3E
:1005B00007C0EDFF06C0EDFF05C0EFFF010EDBCF6A
:1005C00014F0020EDBCF15F0030EDBCF16F0040E95
:1005D000DBCF17F0050EDBCF18F0060EDBCF19F0DE
:1005E000070EDBCF1AF0080EDBCF1BF018C00AF0A5
:1005F00019C00BF01AC00CF01BC00DF014C005F0B0
:1006000015C006F016C007F017C008F0BAEC0DF0E0
:10061000010A6DE1056A066A520E076E430E086E06
:10062000010EDBCF0AF0020EDBCF0BF0030EDBCFA7
:100630000CF0040EDBCF0DF01EEC0DF005C014F035
:1006400006C015F007C016F008C017F0050EDBCF86
:100650001CF0060EDBCF1DF0070EDBCF1EF0080EE0
:10066000DBCF1FF0010EDBCF20F0020EDBCF21F03D
:10067000030EDBCF22F0040EDBCF23F020C00AF004
:1006800021C00BF022C00CF023C00DF01CC005F0FF
:100690001DC006F01EC007F01FC008F034EC0CF0BF
:1006A00005C018F006C019F007C01AF008C01BF00A
:1006B00018C00AF019C00BF01AC00CF01BC00DF0E6
:1006C00014C005F015C006F016C007F017C008F0FA
:1006D000CBEC0CF00D0E05C0DBFF0E0E06C0DBFFF1
:1006E0000F0E07C0DBFF100E08C0DBFF0ED00D0E93
:1006F000DB6A0E0EDB6A7A0EF36E0F0EF3CFDBFFB2
:10070000440EF36E100EF3CFDBFF0D0EDBCF14F0B3
:100710000E0EDBCF15F00F0EDBCF16F0100EDBCF79
:1007200017F014C004F015C005F016C006F017C08D
:1007300007F0110EE15C03E200D0E16AE552E16EE0
:10074000E552E7CFD9FF1200D9CFE6FFE1CFD9FFBD
:100750000D0EE126DE52FE0EDD6EF50EF36E020E7C
:10076000F3CFDBFF000EDF90DF82DF84210EF36E1C
:10077000030EF3CFDBFF080EF36E040EF3CFDBFFA7
:10078000000EDF96DF98050EDB68060EDB68070EAD
:10079000DB68FF0EE76EFD0EDBCF14F0FE0EDBCF45
:1007A00015F0E7501416156A080E14C0DBFFFD0E95
:1007B000DBCF14F0FE0EDBCF15F015C014F0156A78
:1007C000FF0E1416000E1516090E14C0DBFF0A0EDC
:1007D000DB680B0EDB680C0EDB68D9CFE6FFDACFE7
:1007E000E6FF52EC0BF0E552E552050EE66E3CECEE
:1007F0000AF0E5520D0EE15C02E2E16AE552E16EBB
:10080000E552E7CFD9FF1200D9CFE6FFE1CFD9FFFC
:100810000D0EE126DE52FE0EDD6E510EF36E020E5F
:10082000F3CFDBFF000EDF90DF82DF84030EDB6A95
:10083000080EF36E040EF3CFDBFF000EDF96DF9899
:10084000FE0EDB5006E0FD0EF36E050EF3CFDBFF70
:1008500005D0FC0EF36E050EF3CFDBFF060EDB6852
:10086000070EDB68080EDB68090EDB680A0EDB6822
:100870000B0EDB680C0EDB68D9CFE6FFDACFE6FFA4
:1008800052EC0BF0E552E552050EE66E3CEC0AF038
:10089000E5520D0EE15C02E2E16AE552E16EE552DD
:1008A000E7CFD9FF1200D9CFE6FFE1CFD9FF0D0E78
:1008B000E126DE520B0EDD6E020EDB6A000EDF80DB
:1008C000DF82DF94030EDB6A080EF36E040EF3CFB3
:1008D000DBFF000EDF96DF98FE0EDB5006E0FD0E1C
:1008E000F36E050EF3CFDBFF05D0FC0EF36E050EA5
:1008F000F3CFDBFF060EDB68070EDB68080EDB6854
:10090000090EDB680A0EDB680B0EDB680C0EDB6879
:10091000D9CFE6FFDACFE6FF52EC0BF0E552E55215
:10092000050EE66E3CEC0AF0E5520D0EE15C02E2CB
:10093000E16AE552E16EE552E7CFD9FF1200D9CF67
:10094000E6FFE1CFD9FF060EE126DE6ADD6A020E80
:10095000DB6A030EDB6A040EDB6A050EDB6A370E08
:10096000186E1A0E196E240E1A6E400E1B6E18C0E9
:10097000E6FF19C0E6FF1AC0E6FF1BC0E6FF010E46
:10098000E66EE7DCE552E552E7CF1BF0E552E7CF34
:100990001AF0E552E7CF19F0E552E7CF18F004C09E
:1009A0001CF005C01DF006C01EF007C01FF01CC0E3
:1009B0000AF01DC00BF01EC00CF01FC00DF018C0D7
:1009C00005F019C006F01AC007F01BC008F01EECB5
:1009D0000DF005C014F006C015F007C016F008C0F1
:1009E00017F0B80E0A6E1E0E0B6E800E0C6E430EC4
:1009F0000D6E14C005F015C006F016C007F017C044
:100A000008F034EC0CF0020E05C0DBFF030E06C04C
:100A1000DBFF040E07C0DBFF050E08C0DBFF020E84
:100A2000DBCF18F0030EDBCF19F0040EDBCF1AF08A
:100A3000050EDBCF1BF00A6A800E0B6E880E0C6E63
:100A4000430E0D6E18C005F019C006F01AC007F06D
:100A50001BC008F035EC0CF005C014F006C015F012
:100A600007C016F008C017F00A6A0B6A0C6A420E3B
:100A70000D6E14C005F015C006F016C007F017C0C3
:100A800008F01EEC0DF08BEC0DF006C0DEFF07C089
:100A9000DDFFDECF14F0DDCF15F014C0F3FF15C07D
:100AA000F4FF060EE15C03E200D0E16AE552E16E7C
:100AB000E552E7CFD9FF1200D9CFE6FFE1CFD9FF4A
:100AC0000D0EE12600017E2B000E7F23C5EC0BF0FE
:100AD000000937E0D9CFE6FFDACFE6FF94EC0BF060
:100AE000E552E552010EDB50FD0814E1020EDB5029
:100AF000C40810E1080EDB40E8403F0B030B01087F
:100B000003E1C00E8B1202D03F0E8B1600017E6BEC
:100B10007F6B16D0010EDB50FE0812E1020EDB5097
:100B20004F080EE1050EDB380F0B030B010803E144
:100B3000C00E8B1202D03F0E8B1600017E6B7F6BB6
:100B4000C5D700017F3504E27E516408000E7F5551
:100B500003E23F0E8B1603D07E2B000E7F230D0E7B
:100B6000E15C02E2E16AE552E16EE552E7CFD9FFCE
:020B7000120071
:0E0B72000200721F00008A0000000400000054
:0C0B8000521F0000600000002000000078
:040B8C00D9CFE6FFD8
:100B9000E1CFD9FFE652DF6A0101EB6BEBC1EAF16D
:100BA000EBC1E9F1EBC1E8F1ED6BEDC1ECF1020E47
:100BB000E66E900EE66E010EE66E5DD8E552E552E9
:100BC000E552FE0EDBCF16F1DBCF15F1080EDF5C30
:100BD00019E2DF50E76EFC0EDBCFE9FFFD0EDBCF45
:100BE000EAFFE750E926000EEA22EF50E66EDF50FA
:100BF000EA6A0D0FE96E010EEA22E552E750EF6E48
:100C0000DF2AE4D70F01186B0F01196B0F011A6B64
:100C10000F011B6B0F011C6B0F011D6B0F011E6B76
:100C20000F011F6B0F01070E006F0F01880E016F80
:100C30000F01080E096F0F010A690F010D6F0F01F7
:100C40000E69E66A36D8E552010117911793179598
:100C50001797E66AAFDAE552010117A306D0050E31
:100C6000E66E3CEC0AF0E552F7D700D0E552E552CB
:100C7000E7CFD9FF1200D9CFE6FFE1CFD9FF9386A6
:100C80009394010EE66E15D8E552400E606E0F018A
:100C9000506FFE0EDB50706EFD0EDB50716EFC0E61
:100CA000DB50726E738A739800D0E552E7CFD9FF9C
:100CB0001200D9CFE6FFE1CFD9FFE652DF6AFE0E80
:100CC000DB50020A0FE0030A06E0010A01E011D03E
:100CD0001F0E6F160ED01F0E6F1480096F6E800EE0
:100CE000DF6E07D01F0E6F1440096F6E400EDF6E6F
:100CF00000D0E00E6E14146EDF50145C01E0F9D7E2
:100D0000E552E552E7CFD9FF1200D9CFE6FFE1CF98
:100D1000D9FFE652DF6AFB0EDBCFE9FFFC0EDBCF2B
:100D2000EAFFEF6AFD0EDBCFE9FFFE0EDBCFEAFF45
:100D3000EF50070B200DF3CF14F0FB0EDBCFE9FFD4
:100D4000FC0EDBCFEAFF1450EF12FD0EDBCFE9FF04
:100D5000FE0EDBCFEAFFEE52EF50E00BE838E84042
:100D6000146EFB0EDBCFE9FFFC0EDBCFEAFF145065
:100D7000EF12FD0EDBCFE9FFFE0EDBCFEAFFEF50F7
:100D8000100B01E0010E080DF3CF14F0FB0EDBCFCA
:100D9000E9FFFC0EDBCFEAFF1450EF12FB0EDB2A5B
:100DA000FC0E01E3DB2AFB0EDBCFE9FFFC0EDBCF01
:100DB000EAFF080EEF6EFD0EDBCFE9FFFE0EDBCF84
:100DC000EAFFEE52EF50080DF350E00B146EFB0EED
:100DD000DBCFE9FFFC0EDBCFEAFF1450EF12FD0E74
:100DE000DBCFE9FFFE0EDBCFEAFFEE52EF50030B45
:100DF000146EFB0EDBCFE9FFFC0EDBCFEAFF1450D5
:100E0000EF12FB0EDB2AFC0E01E3DB2AFD0EDBCF2B
:100E1000E9FFFE0EDBCFEAFF020EE926000EEA2212
:100E2000EF50E66EFB0EDBCFE9FFFC0EDBCFEAFFF7
:100E3000E552E750EF6EFB0EDB2AFC0E01E3DB2AE6
:100E4000FD0EDBCFE9FFFE0EDBCFEAFF030EE92646
:100E5000000EEA22EF50E66EFB0EDBCFE9FFFC0E40
:100E6000DBCFEAFFE552E750EF6EFB0EDB2AFC0E0C
:100E700001E3DB2AFD0EDBCFE9FFFE0EDBCFEAFF4D
:100E8000040EE926000EEA22EF50E66EFB0EDBCFE1
:100E9000E9FFFC0EDBCFEAFFE552E750EF6EFB0EF9
:100EA000DB2AFC0E01E3DB2AFD0EDBCFE9FFFE0EA1
:100EB000DBCFEAFF040EE926000EEA22EF50DF5CEA
:100EC00027E2FD0EDBCFE9FFFE0EDBCFEAFF050ECA
:100ED000E926000EEA22E9CF14F0EACF15F0DF5040
:100EE0000F011424E96E000E1520EA6EEF50E66E35
:100EF000FB0EDBCFE9FFFC0EDBCFEAFFE552E7504C
:100F0000EF6EFB0EDB2AFC0E01E3DB2ADF2ACCD7D7
:100F100000D0E552E552E7CFD9FF1200D9CFE6FF66
:100F2000E1CFD9FFE652DF6AFB0EDBCFE9FFFC0E13
:100F3000DBCFEAFFEF50E00BE838E840146EFD0E1F
:100F4000DBCFE9FFFE0EDBCFEAFF1450070BF36E99
:100F5000F80EEF14F310EF6EFB0EDBCFE9FFFC0E83
:100F6000DBCFEAFFEF50080BE840E840E8401F0BFA
:100F7000146EFD0EDBCFE9FFFE0EDBCFEAFF14504F
:100F8000010BF36EF346F346F346F346EF0EEF1410
:100F9000F310EF6EFD0EDBCFE9FFFE0EDBCFEAFFB5
:100FA000EE52EF6AFB0EDBCFE9FFFC0EDBCFEAFF70
:100FB000EF50200DF3CF14F0FD0EDBCFE9FFFE0E56
:100FC000DBCFEAFFEE521450EF12FB0EDB2AFC0ED1
:100FD00001E3DB2AFB0EDBCFE9FFFC0EDBCFEAFFF0
:100FE000EF50E840E840E8401F0B1C0B146EFD0E6C
:100FF000DBCFE9FFFE0EDBCFEAFFEE521450EF121B
:10100000FB0EDBCFE9FFFC0EDBCFEAFFEF50030B5B
:10101000146EFD0EDBCFE9FFFE0EDBCFEAFFEE52D2
:101020001450EF12FB0EDB2AFC0E01E3DB2AFB0E51
:10103000DBCFE9FFFC0EDBCFEAFFEF50E66EFD0EE3
:10104000DBCFE9FFFE0EDBCFEAFF020EE926000E42
:10105000EA22E552E750EF6EFB0EDB2AFC0E01E3BD
:10106000DB2AFB0EDBCFE9FFFC0EDBCFEAFFEF5004
:10107000E66EFD0EDBCFE9FFFE0EDBCFEAFF030ECF
:10108000E926000EEA22E552E750EF6EFB0EDB2A5E
:10109000FC0E01E3DB2AFD0EDBCFE9FFFE0EDBCF0A
:1010A000EAFF040EE926000EEA22EF5008080CE2DF
:1010B000FD0EDBCFE9FFFE0EDBCFEAFF040EE926D3
:1010C000000EEA22080EEF6EFB0EDBCFE9FFFC0EEE
:1010D000DBCFEAFFEF50E66EFD0EDBCFE9FFFE0E41
:1010E000DBCFEAFF040EE926000EEA22E552E750C4
:1010F000EF6EFB0EDB2AFC0E01E3DB2AFD0EDBCFDD
:10110000E9FFFE0EDBCFEAFF040EE926000EEA221D
:10111000EF50DF5C27E2FB0EDBCFE9FFFC0EDBCFFD
:10112000EAFFEF50E66EFD0EDBCFE9FFFE0EDBCFF0
:10113000EAFF050EE926000EEA22E9CF14F0EACF15
:1011400015F0DF500F011424E96E000E1520EA6E31
:10115000E552E750EF6EFB0EDB2AFC0E01E3DB2AC3
:10116000DF2ACCD700D0E552E552E7CFD9FF1200F5
:10117000D9CFE6FFE1CFD9FFE652DF6A080EDF5C88
:1011800013E2DF50EA6A0D0FE96E010EEA22EF501A
:10119000E66EDF50EA6A050FE96E010EEA22E552BB
:1011A000E750EF6EDF2AEAD700D0E552E552E7CFED
:1011B000D9FF1200D9CFE6FFE1CFD9FF01010081AD
:1011C000008300950269EE0E016F080E046F009710
:1011D0000099FE0EDB042BE11551035D08E103517C
:1011E000146E156AFE0E141801E1155001E140D08D
:1011F000050EE66E010EE66E80D8E552E552FF0858
:1012000016E04DD8000913E1B3DF0101FE0E156FA2
:10121000036F000EE66E010EE66EBAD8E552E55297
:10122000E6682AD8E55201011781179321D0A0DF83
:1012300016C103F1000EE66E010EE66EA9D8E55266
:10124000E552800E0101161504E0F80E1615F80897
:1012500008E1179116C115F115C1E6FF0DD8E55249
:1012600006D0178300018A6B8B6B8C6B8D6B00D063
:10127000E552E7CFD9FF1200D9CFE6FFE1CFD9FF82
:10128000010EE66E16DDE552FE0EDBCF0EFFE66ABE
:1012900010DDE55200D0E552E7CFD9FF1200010181
:1012A0001551146E156AD890155004E6800E145C22
:1012B000000E15580DE31751020B0DE11551166E76
:1012C000176A173404E216508008000E175403E220
:1012D000800E156F01D0152B15C116F11551146E26
:1012E000156AF80E141801E1155004E1FE0E156F91
:1012F000000E02D0010E00D01200D9CFE6FFE1CFE0
:10130000D9FFE652DF6A080EDF5C19E2DF50E76EB4
:10131000FD0EDBCFE9FFFE0EDBCFEAFFE750E9264B
:10132000000EEA22EFCF14F0DF50EA6A0D0FE96EEB
:10133000010EEA22EF50145C02E1DF2AE4D7080E26
:10134000DF5C03E1000E1FD01CD0DF50EA6A0D0FF6
:10135000E96E010EEA22EFCF14F0DF50E76EFD0ECA
:10136000DBCFE9FFFE0EDBCFEAFFE750E926000EF8
:10137000EA22EF50145C03E2FF0E05D002D0010E0A
:1013800002D0000E00D0E552E552E7CFD9FF12009F
:10139000D9CFE6FFE1CFD9FF050EE126DF6A020EC5
:1013A000DF5C5CE2DF50020A19E0030A0DE0010A8B
:1013B00001E01ED0D950010FE96EDACFEAFF400EEE
:1013C000EE6E0F0EED6E14D0D950010FE96EDACF2C
:1013D000EAFF300EEE6E0F0EED6E0AD0D950010FFF
:1013E000E96EDACFEAFF200EEE6E0F0EED6E00D042
:1013F000010EDBCF06F0020EDBCF07F0030E06C0B6
:10140000DBFF040E07C0DBFF010EDB2A020E01E347
:10141000DB2A030EDBCFE9FF040EDBCFEAFFEF5040
:10142000080B1AE1010EDBCFE6FF020EDBCFE6FF71
:10143000FD0EDBCFE6FFFE0EDBCFE6FF66DCE552FE
:10144000E552E552E552030EDBCFE9FF040EDBCF98
:10145000EAFFEF86010E04D0DF2AA1D7000E00D0EC
:10146000146E050EE15C02E2E16AE552E16E145091
:10147000E552E7CFD9FF1200D9CFE6FFE1CFD9FF80
:10148000FE0EDBCF14F00001145000018A27000E7D
:101490008B238C238D231CD8D8D801011751020B24
:1014A00013E0900E00018A5DD00E8B59030E8C590B
:1014B000000E8D5909E301011791179316C115F11B
:1014C00015C1E6FFD9DEE552E552E7CFD9FF12009C
:1014D000D9CFE6FFE1CFD9FF050EE126DF6A020E84
:1014E000DF5C66E2DF50010A0DE0010A01E014D082
:1014F000D950010FE96EDACFEAFF600EEE6E0F0EE3
:10150000ED6E0AD0D950010FE96EDACFEAFF500E26
:10151000EE6E0F0EED6E00D0010EDBCF06F0020E68
:10152000DBCF07F0030E06C0DBFF040E07C0DBFFB6
:10153000010EDB2A020E01E3DB2A030EDBCFE9FFFB
:10154000040EDBCFEAFFEF50800B30E0010EDBCF63
:10155000E6FF020EDBCFE6FF000EE66E010EE66E42
:10156000DDDCE552E552E552E55201010151EA0A9E
:101570000AE0040A01E012D017B704D0010EE66EAB
:1015800019DEE5520CD0055107E1EA0E065D04E1D3
:10159000075102E118D801D030D801D02ED8030E5F
:1015A000DBCFE9FF040EDBCFEAFFEF9EDF2A97D700
:1015B00000D0050EE15C02E2E16AE552E16EE5521F
:1015C000E7CFD9FF1200010117A103D0FE0E036F70
:1015D00002D015C103F1008100830095EE0E016F6A
:1015E0000269080E046FC4DD000EE66E010EE66EA1
:1015F000CFDEE552E55200D01200080E0101ED5D8C
:1016000021E20D0EE66E000EE66E010EE66EEB5167
:101610000D0DF3CF14F0F4CF15F0800E1426010E4B
:10162000152214C0E6FF15C0E6FFB7D8166E050EEA
:10163000E15E16500101EB2BED2B080EEB5D01E195
:10164000EB6B01D0178500D01200D9CFE6FFE1CFB8
:10165000D9FFE652DF6A0101EC511EE0030EDF5CA8
:101660001BE2E8510D0DF3CF14F0F4CF15F0180E76
:101670001426010E152214C0E6FF15C0E6FF88DE11
:10168000E552E552000907E00101EC07E82B080EDE
:10169000E85D01E1E86BDFD700D0E552E552E7CF26
:1016A000D9FF1200D9CFE6FFE1CFD9FF080E010123
:1016B000EC5D02E1010E34D00D0EE66EFD0EDBCFC7
:1016C000E6FFFE0EDBCFE6FFE9510D0DF3CF14F080
:1016D000F4CF15F0180E1426010E152214C0E6FFE3
:1016E00015C0E6FF5AD8166E050EE15E16500101D0
:1016F000E9510D0DF3CFE9FFF4CFEAFF180EE9260B
:10170000010EEA22030EE926000EEA2215C1EFFFC0
:10171000EC2BE92B080EE95D01E1E96B000E00D02E
:10172000E552E7CFD9FF1200D9CFE6FFE1CFD9FFCD
:101730000101ED5102E1020E24D00D0EE66EEA51D8
:101740000D0DF3CF14F0F4CF15F0800E1426010E1A
:10175000152214C0E6FF15C0E6FFFD0EDBCFE6FF45
:10176000FE0EDBCFE6FF19D8166E050EE15E1650B1
:101770000101ED07EA2B080EEA5D01E1EA6B000EBC
:1017800000D0E552E7CFD9FF12000101ED5100D0A2
:1017900012000101EC5100D01200D9CFE6FFE1CFD9
:1017A000D9FFE652DF6AFA0EDB50DF5C1FE2DF5042
:1017B000E76EFB0EDBCFE9FFFC0EDBCFEAFFE75065
:1017C000E926000EEA22EF50E66EDF50E76EFD0ECE
:1017D000DBCFE9FFFE0EDBCFEAFFE750E926000E84
:1017E000EA22E552E750EF6EDF2ADDD700D0E5525E
:1017F000E552E7CFD9FF12000F01336B0F01346BB5
:101800000F016B0E316F0F01CB0E326F0F01080EFF
:10181000356F0F01AA0E366F0F01CC0E376F0F0117
:10182000550E386F0F01396B0F013A6B0F013B6B8F
:0E1830000F013C6B0F013D6B0F013087120062
:02183E000F9EFB
:1018400008D00F9E07AE05D0066C071EE86A072277
:101850000F8E07C001F006C000F0136A126A8E0EE8
:10186000026E036A34EF0EF00D7E0F6A70EC0EF01C
:1018700088EC0EF00FB618EF0EF00FA20AD00FAAE8
:1018800003D00FBE18EF0EF00FA424EF0EF021EFDF
:101890000EF00FAA05D00FAC24EF0EF021EF0EF0E2
:1018A0000FA00AD00FA808D00FBE04D00FA402D0FA
:1018B0002DEF0EF031EF0EF0126A036A0D50085C46
:1018C000116E10E305C013F006C000F007C001F070
:1018D00008C010F00AC005F00BC006F00CC007F0FD
:1018E0000F3A09D00AC013F00BC000F00CC001F091
:1018F0000DC010F0116C0F9E0FBC0F8E10C002F0C7
:101900000FB060EF0EF01A0E116060EF0EF0026A79
:10191000086A0FA408D0056C061E071E081EE86A98
:101920000622072208220FAC08D0136C001E011EED
:10193000021EE86A002201220222046A115207E014
:1019400008340732063205320432112EF9D7055019
:10195000132606500022075001220850022204C01C
:1019600012F00F9E02AE0BD0126C131E001E011E51
:10197000021EE86A13220022012202220F8E02A018
:1019800006D0D8800132003213321232102A10C031
:1019900002F034EF0EF00F6A70EC0EF088EC0EF0EF
:1019A0000FB618EF0EF00FA205D00FBA18EF0EF019
:1019B0001FEF0EF00FBA2BEF0EF00FA005D00FB8EF
:1019C00018EF0EF02BEF0EF00FB81FEF0EF0036ABA
:1019D0007F0E0824026EE86A03220D50025EE86A58
:1019E000035A1A0E106E086A126A136A006A016AB4
:1019F0000A50055E0B50065A0C50075A000E085A42
:101A000009E70A5005260B5006220C500722000E4B
:101A1000082201D0128AD8900536063607360836D5
:101A2000D8901236133600360136102EE1D7075003
:101A300006100510D8A4128A34EF0EF00F6A70EC6D
:101A40000EF088EC0EF00FB618EF0EF00FA205D0D6
:101A50000FB818EF0EF01FEF0EF00FAA05D00FB061
:101A600018EF0EF01FEF0EF00FB002D00FA802D04B
:101A70002BEF0EF0036A0D500824026EE86A032271
:101A80007E0E025EE86A035A126A136A006A016AED
:101A90000C500702F4CF01F0F3CF00F00B50070217
:101AA000F3501326F4500022000E01220C500602BF
:101AB000F3501326F4500022000E01220A500702B0
:101AC000F3501226F4501322000E002201220B5074
:101AD0000602F3501226F4501322000E00220122B7
:101AE0000C500502F3501226F4501322000E00226F
:101AF00001220A500602F4501226000E1322002280
:101B000001220B500502F4501226000E132200226F
:101B1000012234EF0EF00F6A70EC0EF00FB695EF65
:101B20000DF00FA20ED00FB405D07F0E076EFF0E82
:101B3000066E1FD0800E076E066A1BD0076A066A03
:101B400018D00FB0FBD78F0E0860EDD77E0E08645B
:101B5000F5D78E0E085C05E0D89007320632082AC9
:101B6000F8D70FA406D0066C071EE86A072207AE56
:101B7000E5D71200C3EC0DF00FB6000C0FB0000C4F
:101B80000FA4000C010C0F6A70EC0EF088EC0EF044
:101B90000FB612000FAE08D00FA004D00FA802D0CD
:101BA0000F8012000F9012000D50085C0BE10C50DA
:101BB000075C08E10B50065C05E10A50055C02E198
:101BC0000F801200D8A002D00F8E10D008500DC088
:101BD00008F00D6E07500CC007F00C6E06500BC0DD
:101BE00006F00B6E05500AC005F00A6E0D50085C39
:101BF00010E0FF0F09E00F900FB403D00FAE0F8479
:101C000012000FAE0F9412000D2AD8900C320B3236
:101C10000A320A50055E0B50065A0C50075A07BE8E
:101C2000EAD7D890053606360736082EF8D7C8D733
:101C30007F0E086EFF0E076E066E056E12007F0E99
:101C40000FBEFF0E086E02D07F0E086E800E076E6C
:101C5000066A056AF3D70FAE04D0800E086E076AD5
:101C6000F7D7086A076AF4D7015000101310121052
:101C7000F8E003BEF0D701BE0CD002500310EBE039
:101C8000D89012361336003601360206D8A0030665
:101C9000F2D70350D4E10228D2E012AE11D07F0E69
:101CA000121402E113A00CD0132AE86A00220122C8
:101CB00007E3D880013200321332022A0228BFE043
:101CC0000250C9E013C005F000C006F00134076EF1
:101CD0000230086E0732089E0FBE088E1EEF0EF00F
:101CE0000736083602E30F840F7E06E10F80086A8C
:101CF000076A066A056A1200082803E0D8800732DE
:101D00001200D890073202E10F8212000F861200F3
:101D10000C360D3602E30F8C0F7E06E10F880D6A3C
:101D20000C6A0B6A0A6A12000D2803E0D8800C3294
:0C1D30001200D8900C32EAE10F8A120079
:041D3C00720EF66EBF
:101D40000B0EF76E000EF86E00010900F550856F5E
:101D50000900F550866F03E1856701D03DD0090089
:101D6000F550806F0900F550816F0900F550826FC2
:101D700009000900F550E96E0900F550EA6E090006
:101D800009000900F550836F0900F550846F0900C0
:101D90000900F6CF87F0F7CF88F0F8CF89F080C040
:101DA000F6FF81C0F7FF82C0F8FF0001835302E114
:101DB000845307E00900F550EE6E8307F8E28407CC
:101DC000F9D787C0F6FF88C0F7FF89C0F8FF000188
:0A1DD0008507000E865BBFD71200E6
:061DDA00D9CFE6FFDACFCD
:101DE000E6FFE1CFD9FFE2CFDAFFC26AC06AFC0E9C
:101DF000DB407F0B3C0BC26EFC0EDB38F00B300B74
:101E0000146EFB0EDB500F0B1410C16EFD0EDB5079
:101E1000040DF350380B156EFD0EDB380F0B070B5E
:101E2000146EFD0EDB50800B14101510C06EFC0EEE
:101E3000DBAE03D09E9C9D8CF28CC280E552E5CF38
:081E4000DAFFE7CFD9FF120021
:081E4800D9CFE6FFDACFE6FF77
:101E5000E1CFD9FFE2CFDAFFFD0EDB507E0BCD6E76
:101E6000FD0EDBAC02D0CD8E01D0CD9ECF6ACE6A06
:101E70009E90DBAE02D09D8001D09D90CD80E5523A
:0A1E8000E5CFDAFFE7CFD9FF12002B
:061E8A00D9CFE6FFDACF1C
:101E9000E6FFE1CFD9FFE2CFDAFFE652E652FC0ED1
:101EA000DBCFDEFFDBCFDDFF010EDB50CF6EDF507F
:101EB000CE6EE552E552E552E5CFDAFFE7CFD9FF26
:021EC00012000E
:0E1EC200D9CFE6FFDACFE6FFE1CFD9FFE2CFBE
:101ED000DAFFC30EC214146EFD0EDB407F0B3C0B09
:101EE0001410C26EE552E5CFDAFFE7CFD9FF12003A
:101EF000000EF36E00EE00F0060E01D81200EA604C
:101F000002D0EE6AFCD7F350E9601200EE6AFCD70B
:101F100015EE00F025EE00F0F86A0F9C9EEC0EF036
:0C1F200003EC00F05CEC00F0FBD71200BA
:041F2C00C450176E18
:0E1F3000166AC3501610F36E17C0F4FF1200AD
:021F3E00C2508F
:081F4000020B01E0010E12008A
:061F4800C2909D9C1200F6
:021F4E00C2824D
:021F500012007D
:0E1F5200000000000000000000000000000081
:101F6000000000000000010001000000010001006D
:021F700000006F
:041F7200000000006B
:020000040030CA
:0100010009F5
:010003001EDE
:0100050002F8
:010006008178
:00000001FF
